S0190000737364313330365F61746D6567613332382E737265638C
S11300000C943F040C9467040C9467040C946704E8
S11300100C9467040C9467040C9467040C946704B0
S11300200C9467040C9467040C9467040C946704A0
S11300300C9467040C9467040C94760D0C94670478
S11300400C9467040C9467040C9467040C94670480
S11300500C9467040C9467040C9467040C94670470
S11300600C9467040C946704A70AA104CD04A505A5
S11300707906F406CC07A1080509D109000000009F
S1130080000000000000000000000000000000006C
S1130090000000000000000000000000000000005C
S11300A0000000000000000000000000000000004C
S11300B0000000000000000000000000000000003C
S11300C00000001C70000000000008400000000355
S11300D0870C083EF80000000000084000000006FD
S11300E0C4CC183FF80000000000084E00000006D1
S11300F0644E183FF80000000000084300000006AA
S1130100444A2C3FF800000000000FC20000000722
S1130110C4CB2C1FF00000000000084400000006BF
S113012067896C1FF000000000000844000000060E
S113013024094C0FE00000000000084800000006FD
S11301402409CC07C00000000000084F000000078D
S1130150C4088803800000000000000000000000C4
S1130160000000000000018000000000000000000A
S113017000000000000001800000000000000000FA
S113018000000000000001800000000000000000EA
S1130190000000000000000000000000000000005B
S11301A0000000000000000000000000FFFFFFFF4F
S11301B0FFFFFFFFFFFFFFFFFFFFFFFF0000000047
S11301C0000000000000000000000000000000002B
S11301D0000000000000000000000000000000001B
S11301E0000000000000000000000000000000000B
S11301F000000000000000000000000000000000FB
S11305700000000000000000000000000000076808
S11305800000000000000000000000000000057AE8
S1130590000000000000000000000000000025B67C
S11305A0C000000000000000000000000000703FD8
S11305B0A000000000000000000000000000F3FCA8
S11305C0F0000000000000000000000000004FFFE9
S11305D0C0000000000000000000000000061FFF33
S11305E0E4000000000000078000000000033FFF5B
S11305F0C8007FFC3E01F03FF9FFE00000067FFFEA
S1130600F2007FFE3E01F0FFFDFFF800000EF7E070
S1130610F4007FFF3E01F1FFFDFFFC000001FF81BC
S1130620FF007E3F3E01F1FFFDF8FC00001DFF814D
S1130630FB807E1F3E01F3F80DF87C000001FF8172
S1130640FC807E1F3E01F3F001F87C000023FF8153
S1130650F8007E1F3E01F7E001F8FC00003BFFE0DC
S1130660FB807FFF3E01F7E001FFFC000003FFF386
S1130670FC007FFF3E01F7E001FFF800003BFFFFB5
S1130680FB807FFE3E01F7E001FFF0000003FFFF67
S1130690F8087FF83E03F7E001FFE0000003FFFFE6
S11306A0FB087E003F03F3F001F80000003DFFFF6C
S11306B0FF887E003F87F3F80DF80000001DFFFF60
S11306C0FF887E001FFFE3FE7DF80000001E9EF7FA
S11306D0FF087E001FFFE1FFFDF80000001E6B1FF6
S11306E0FF087E000FFFC0FFFDF80000000FFFFFB2
S11306F0FF087E0007FF007FF9F80000000FFFFFEE
S1130700DE083C0000FC000FE0F000000007DFFF03
S1130710BC08000000000000000000000003EFFE21
S11307207C00000000000000000000000001FBF954
S1130730F800000000000000000000000000FF9F1F
S1130740F0000000000000000000000000007FFF37
S1130750C0000000000000000000000000001FFFB7
S1130760800000000000000000000000000007FC02
S11307700000000000000000000000000000000075
S11307800000000000000000000000000000000065
S11307900000000000000000000000000000000055
S11307A00000000000000000000000000000000045
S11307B00000000000000000000000000000000035
S11307C00000000000000000000000000000000025
S11307D00000000000000000000000000000000015
S11307E00000000000000000000000000000000005
S11307F000000000000000000000000000000000F5
S113080000000000000000000000000000000000E4
S113081000000000000000000000000000000000D4
S113082000000000000000000000000000000000C4
S113083000000000000000000000000000000000B4
S113084000000000000000000000000000000000A4
S11308500000000000000000000000000000000094
S11308600000000000000000000000000000000084
S1130870000000000000000000000000800E1124B1
S11308801FBECFEFD8E0DEBFCDBF11E0A0E0B1E0E6
S1130890E6EDF1E202C005900D92A430B107D9F75C
S11308A025E0A4E0B1E001C01D92A731B207E1F751
S11308B014E0CFE3D4E004C02197FE010E94CF10DE
S11308C0CE33D107C9F70E942C0D0C94E9100C9477
S11308D000000E94860C08952DEC629F212D1124A6
S11308E022952695277038E2239F6019112457E238
S11308F0561B252F26952695269530E02D5F3F4FD4
S11309003695322F222737952795820F931FFC01A6
S1130910E40FF11D577081E090E002C0880F991F29
S11309205A95E2F7808308950F931F93062F10E0E2
S11309300A30110508F0D6C6F801EC5CFF4F0C94A0
S1130940CF1050E0FA013C96E80FF91F2081286F80
S113095020839C01240F351FF901E457FF4F7FEFDB
S11309607083FA01E45FFE4FE80FF91F6081616054
S11309706083FA013D96E80FF91F6081686F608318
S1130980F901E357FF4F7083435F5E4FFC01E40FAF
S1130990F51F808181608083A5C650E0FA013596F9
S11309A0E80FF91F208120612083FA01EB57FF4FE4
S11309B0E80FF91F20812C6F2083FA013696E80F87
S11309C0F91F208128612083FA01EA57FF4FE80FBD
S11309D0F91F20812E6F2083FA01EA5FFE4FE80F92
S11309E0F91F208121602083FA013796E80FF91F4F
S11309F0208128612083FA01E957FF4FE80FF91F8E
S1130A00208126682083FA01E95FFE4FE80FF91F71
S1130A10208121602083FA013896E80FF91F208194
S1130A2028612083FA01E857FF4FE80FF91F20815E
S1130A3026682083FA01E85FFE4FE80FF91F208142
S1130A4021602083FA013996E80FF91F208128617B
S1130A502083FA01E757FF4FE80FF91F208126682A
S1130A602083FA01E75FFE4FE80FF91F2081216020
S1130A702083FA013A96E80FF91F20812861208328
S1130A80FA01E657FF4FE80FF91F208126682083FB
S1130A90FA01E65FFE4FE80FF91F208121602083F1
S1130AA0FA013B96E80FF91F208128612083FA019F
S1130AB0E557FF4FE80FF91F208126682083FA01CC
S1130AC0E55FFE4FE80FF91F208121602083FA01C2
S1130AD03C96E80FF91F208128612083FA01E4572E
S1130AE0FF4FE80FF91F208126682083FA01E45F95
S1130AF0FE4FE80FF91F208121602083FA013D9603
S1130B00E80FF91F2081286F2083FA01E357FF4F74
S1130B10E80FF91F208127682083FA01E35FFE4F65
S1130B20E80FF91F208121602083FA013E96E80F27
S1130B30F91F2081206F2083425F5E4FFC01E40F88
S1130B40F51F808187688083CDC5E42FF0E0DF0145
S1130B501596A80FB91F2C9120612C93DF01AB5778
S1130B60BF4FA80FB91F2C9120682C93DF01169654
S1130B70A80FB91F2C9128612C93DF01AA57BF4FEE
S1130B80A80FB91F2C9126682C93DF01AA5FBE4FD2
S1130B90A80FB91F2C9121602C93DF011796A80F81
S1130BA0B91F2C9128612C93DF01A957BF4FA80FBF
S1130BB0B91F2C9126682C93DF01A95FBE4FA80FA3
S1130BC0B91F2C9121602C93DF011896A80FB91F2F
S1130BD02C9128612C93DF01A857BF4FA80FB91F90
S1130BE02C9126682C93DF01A85FBE4FA80FB91F74
S1130BF02C9121602C93DF011996A80FB91F2C9119
S1130C0028612C93DF01A757BF4FA80FB91F2C9160
S1130C1026682C93DF01A75FBE4FA80FB91F2C9144
S1130C2021602C93DF011A96A80FB91F2C9128611B
S1130C302C93DF01A657BF4FA80FB91F2C9126682C
S1130C402C93DF01A65FBE4FA80FB91F2C91216022
S1130C502C93DF011B96A80FB91F2C9128612C93AC
S1130C60DF01A557BF4FA80FB91F2C9126682C93FD
S1130C70DF01A55FBE4FA80FB91F2C9121602C93F3
S1130C80DF011C96A80FB91F2C9128612C93DF015A
S1130C90A457BF4FA80FB91F2C9126682C93DF01CE
S1130CA0A45FBE4FA80FB91F2C9121602C93DF01C4
S1130CB01D96A80FB91F2C91286F2C939C012E0F01
S1130CC03F1FD901A357BF4F5FEF5C93DF01A35FC1
S1130CD0BE4FA80FB91F4C9141604C933E96E80F4C
S1130CE0F91F8081806F8083F901E257FF4F5083A1
S1130CF0F9C4642F70E0FB013596E80FF91F2081D9
S1130D00286F2083FB01EB57FF4FE80FF91F208169
S1130D1027602083FB013696E80FF91F2081286F96
S1130D202083FB01EA57FF4FE80FF91F208127605A
S1130D302083FB01E957FF4FE80FF91F208126604C
S1130D402083FB01E857FF4FE80FF91F208126603D
S1130D502083FB01E757FF4FE80FF91F208126602E
S1130D602083FB01E657FF4FE80FF91F208126601F
S1130D702083FB01E557FF4FE80FF91F2081266010
S1130D802083FB01E457FF4FE80FF91F2081266001
S1130D902083FB013D96E80FF91F2081286F2083F3
S1130DA09C01260F371FF901E357FF4F5FEF508374
S1130DB0FB01E35FFE4FE80FF91F40814160408370
S1130DC0FB013E96E80FF91F4081486F4083F9010B
S1130DD0E257FF4F5083FB01E25FFE4FE80FF91F1C
S1130DE08081816080837EC450E0FA013596E80FEB
S1130DF0F91F2081206F2083FA01EB57FF4FE80F82
S1130E00F91F208127682083FA013696E80FF91F1D
S1130E102081286F2083FA01EA57FF4FE80FF91F5A
S1130E20208127682083FA01EA5FFE4FE80FF91F4B
S1130E30208121602083FA013796E80FF91F208171
S1130E4028612083FA01E957FF4FE80FF91F208139
S1130E5026682083FA01E95FFE4FE80FF91F20811D
S1130E6021602083FA013896E80FF91F2081286158
S1130E702083FA01E857FF4FE80FF91F2081266805
S1130E802083FA01E85FFE4FE80FF91F20812160FB
S1130E902083FA013996E80FF91F20812861208305
S1130EA0FA01E757FF4FE80FF91F208126682083D6
S1130EB0FA01E75FFE4FE80FF91F208121602083CC
S1130EC0FA013A96E80FF91F208128612083FA017C
S1130ED0E657FF4FE80FF91F208126682083FA01A7
S1130EE0E65FFE4FE80FF91F208121602083FA019D
S1130EF03B96E80FF91F208128612083FA01E5570A
S1130F00FF4FE80FF91F208126682083FA01E55F6F
S1130F10FE4FE80FF91F208121602083FA013C96DF
S1130F20E80FF91F208128612083FA01E457FF4F5D
S1130F30E80FF91F208126682083FA01E45FFE4F41
S1130F40E80FF91F208121602083FA013D96E80F04
S1130F50F91F208128612083FA01E357FF4FE80F2E
S1130F60F91F20812E6F2083FA01E35FFE4FE80F03
S1130F70F91F208121602083FA013E96E80FF91FB2
S1130F8020812061208342575F4FFC01E40FF51F4D
S1130F9080818C6F8083A6C3642F70E0FB0135963B
S1130FA0E80FF91F2081206F20839C01260F371F33
S1130FB0F901EB57FF4F5FEF5083FB013696E80FC3
S1130FC0F91F4081486F4083F901EA57FF4F50836E
S1130FD0FB01EA5FFE4FE80FF91F208121602083A7
S1130FE0FB013796E80FF91F208128612083FB015C
S1130FF0E957FF4FE80FF91F208126682083FB0182
S1131000E95FFE4FE80FF91F208121602083FB0177
S11310103896E80FF91F208128612083FB01E857E7
S1131020FF4FE80FF91F208126682083FB01E85F4A
S1131030FE4FE80FF91F208121602083FB013996C0
S1131040E80FF91F208128612083FB01E757FF4F38
S1131050E80FF91F208126682083FB01E75FFE4F1C
S1131060E80FF91F208121602083FB013A96E80FE5
S1131070F91F208128612083FB01E657FF4FE80F09
S1131080F91F208126682083FB01E65FFE4FE80FED
S1131090F91F208121602083FB013B96E80FF91F93
S11310A0208128612083FB01E557FF4FE80FF91FDA
S11310B0208126682083FB01E55FFE4FE80FF91FBE
S11310C0208121602083FB013C96E80FF91F2081D9
S11310D028612083FB01E457FF4FE80FF91F2081AB
S11310E026682083FB01E45FFE4FE80FF91F20818F
S11310F021602083FB013D96E80FF91F20812861C0
S11311002083FB01E357FF4FE80FF91F20812E6F67
S11311102083FB01E35FFE4FE80FF91F208121606C
S11311202083FB013E96E80FF91F20812061208374
S113113062577F4FFC01E60FF71F80818C6F80831D
S1131140D1C250E0FA013596E80FF91F20812861D9
S11311502083FA013696E80FF91F20812861208345
S1131160FA013796E80FF91F208128612083FA01DC
S11311703896E80FF91F208128612083FA013996F7
S1131180E80FF91F208128612083FA013A96E80FBD
S1131190F91F208128612083FA013B96E80FF91F8B
S11311A0208128612083FA013C96E80FF91F2081F1
S11311B028612083FA013D96E80FF91F2081286FEA
S11311C020839C01240F351FF901E357FF4F7FEF64
S11311D07083FA01E35FFE4FE80FF91F60816160DD
S11311E06083FA013E96E80FF91F6081686F60839F
S11311F0F901E257FF4F7083425F5E4FFC01E40F39
S1131200F51F8081816080836DC2E42FF0E0DF01EF
S11312101596A80FB91F2C91206F2C939C012E0FAB
S11312203F1FD901AB57BF4F4FEF4C93DF011696C9
S1131230A80FB91F5C91586F5C93D901AA57BF4F8F
S11312404C93DF01AA5FBE4FA80FB91F5C91516098
S11312505C93DF011796A80FB91F5C9158615C93EA
S1131260DF01A957BF4FA80FB91F5C9156685C9363
S1131270DF01A95FBE4FA80FB91F5C9151605C9359
S1131280DF011896A80FB91F5C9158615C93DF01C8
S1131290A857BF4FA80FB91F5C9156685C93DF0134
S11312A0A85FBE4FA80FB91F5C9151605C93DF012A
S11312B01996A80FB91F5C9158615C93DF01A75779
S11312C0BF4FA80FB91F5C9156685C93DF01A75FFD
S11312D0BE4FA80FB91F5C9151605C93DF011A9651
S11312E0A80FB91F5C9158615C93DF01A657BF4FEB
S11312F0A80FB91F5C9156685C93DF01A65FBE4FCF
S1131300A80FB91F5C9151605C93DF011B96A80F75
S1131310B91F5C9158615C93DF01A557BF4FA80FBB
S1131320B91F5C9156685C93DF01A55FBE4FA80F9F
S1131330B91F5C9151605C93DF011C96A80FB91F23
S11313405C9158615C93DF01A457BF4FA80FB91F8C
S11313505C9156685C93DF01A45FBE4FA80FB91F70
S11313605C9151605C93DF011D96A80FB91F5C91DD
S1131370586F5C93D901A357BF4F4C93DF01A35F10
S1131380BE4FA80FB91F5C9151605C933E96E80F65
S1131390F91F8081806F8083F901E257FF4F4083FA
S11313A0A1C1242F30E0F9013596E80FF91F4081DF
S11313B0406F4083F901EB57FF4FE80FF91F40815D
S11313C047684083F9013696E80FF91F4081486F5A
S11313D04083F901EA57FF4FE80FF91F408147683E
S11313E04083F901EA5FFE4FE80FF91F4081416035
S11313F04083F9013796E80FF91F40814861408323
S1131400F901E957FF4FE80FF91F4081466840830F
S1131410F901E95FFE4FE80FF91F40814160408305
S1131420F9013896E80FF91F408148614083F901BA
S1131430E857FF4FE80FF91F408146684083F901E0
S1131440E85FFE4FE80FF91F408141604083F901D6
S11314503996E80FF91F408148614083F901E75745
S1131460FF4FE80FF91F408146684083F901E75FA9
S1131470FE4FE80FF91F408141604083F9013A961D
S1131480E80FF91F408148614083F901E657FF4F97
S1131490E80FF91F408146684083F901E65FFE4F7B
S11314A0E80FF91F408141604083F9013B96E80F42
S11314B0F91F408148614083F901E557FF4FE80F68
S11314C0F91F408146684083F901E55FFE4FE80F4C
S11314D0F91F408141604083F9013C96E80FF91FF0
S11314E0408148614083F901E457FF4FE80FF91F39
S11314F0408146684083F901E45FFE4FE80FF91F1D
S1131500408141604083F9013D96E80FF91F408115
S1131510486F4083AC01420F531FFA01E357FF4F5A
S11315207FEF7083F901E35FFE4FE80FF91F6081DD
S113153061606083225F3F4FFC01E20FF31F8081F3
S1131540806F8083FA01E257FF4F7083CBC0A42FD2
S1131550B0E0FD013596E80FF91F2081206F20834C
S11315609C012A0F3B1FF901EB57FF4F4FEF4083BC
S1131570FD013696E80FF91F5081586F5083F90129
S1131580EA57FF4F4083FD01EA5FFE4FE80FF91F62
S1131590508151605083FD013796E80FF91F508147
S11315A058615083FD01E957FF4FE80FF91F50813F
S11315B050685083FD01E95FFE4FE80FF91F508129
S11315C051605083FD013896E80FF91F508158612E
S11315D05083FD01E857FF4FE80FF91F5081506811
S11315E05083FD01E85FFE4FE80FF91F5081516001
S11315F05083FD013996E80FF91F508158615083DB
S1131600FD01E757FF4FE80FF91F508150685083E1
S1131610FD01E75FFE4FE80FF91F508151605083D1
S1131620FD013A96E80FF91F508158615083FD017E
S1131630E657FF4FE80FF91F508150685083FD01B2
S1131640E65FFE4FE80FF91F508151605083FD01A2
S11316503B96E80FF91F508158615083FD01E5570F
S1131660FF4FE80FF91F508150685083FD01E55F7B
S1131670FE4FE80FF91F508151605083FD013C96E5
S1131680E80FF91F508158615083FD01E457FF4F63
S1131690E80FF91F508150685083FD01E45FFE4F4D
S11316A0E80FF91F508151605083FD013D96E80F0A
S11316B0F91F5081586F5083F901E357FF4F40835E
S11316C0FD01E35FFE4FE80FF91F50815160508325
S11316D01E96A80FB91F8C91806F8C93F901E25765
S11316E0FF4F40831F910F910895FF920F931F9313
S11316F0CF93DF938C01F62E83E68617C8F4F801A6
S11317008081886F80839FEFE058FF4F9083E0587B
S1131710FF4F808181608083F8018181886F81839C
S1131720EF57FF4F9083E058FF4F808181608083A3
S113173069E8F69E612D112462956695677046E40A
S1131740C8010E9494046BEAF69E612D11246695EB
S11317506695DDEC6D9F812D112486958695869581
S1131760880F982F990F990F890F681B46E5C801B8
S11317700E9494042F2D30E0C901880F991F220F75
S1131780331F220F331F220F331F820F931F66E074
S113179070E00E949910CB016AE070E00E949910F9
S11317A042E6682FC8010E949404C9E2FC9EC12D40
S11317B01124C295CF70F4E6CF9FF0181124FD9E3A
S11317C0D12D1124D695D695D69540E06D2FC8011C
S11317D00E949404DD0F8D2F880F880FD80F6F2D72
S11317E06D1B4CE0C8010E949404DF91CF911F91BE
S11317F00F91FF9008956623B4F14034A0F522239D
S1131800C9F0242F26952695269570E030E8239F6D
S1131810600D711D1124FC01E60FF71F477081E074
S113182090E002C0880F991F4A95E2F79081892BB6
S113183080830895242F26952695269570E030E818
S1131840239F600D711D1124FC01E60FF71F4770E3
S113185081E090E002C0880F991F4A95E2F78095D5
S11318609081892380830895AF92BF92CF92DF92B3
S1131870EF92FF920F931F93CF93DF936C017B0141
S1131880C0E0D0E0A12C00E810E0B12C8B2D8695AF
S113189086958695FE01E80FF11DEE0DFF1D8491DE
S11318A09B2D9770980102C0359527959A95E2F77C
S11318B0E82FF0E0E223F323EF2B39F021E04A2D67
S11318C06B2DC6010E94FB0B06C020E04A2D6B2D38
S11318D0C6010E94FB0BB39480E8B812D7CFA3943F
S11318E0609680E4A812D1CFDF91CF911F910F9120
S11318F0FF90EF90DF90CF90BF90AF900895FC01E0
S11319009C5F1192E817F907E1F70895CF93DF93ED
S1131910EC019C5F0E94AF0ECE010E947F0CDF9110
S1131920CF910895BC019C5F0E941F0F08950895F4
S1131930FC0160831092B90088E48093B800089594
S1131940DC0184EA8093BC00ECEBF0E09081992305
S1131950ECF79091B900987F11969C931197983069
S113196011F09031B9F48C918093BB0084E880939A
S1131970BC00ECEBF0E090819923ECF79091B90076
S1131980987F11969C93983139F081E0903429F432
S113199080E0089581E0089580E00895DC0160937B
S11319A0BB0084E88093BC00ECEBF0E090819923C9
S11319B0ECF79091B900987F11969C9381E098324E
S11319C009F480E0089584E98093BC00ECEBF0E036
S11319D0808184FDFDCF089584B5826084BD89EF44
S11319E087BDEEE6F0E0808182608083789485B5DF
S11319F0846085BD089584B1866084B989E190E0EE
S1131A0090938700809386008AE090E09093890009
S1131A108093880090938B0080938A00E0E8F0E044
S1131A208081806A8083808182608083E1E8F0E045
S1131A308081886180838081846080830895209A76
S1131A400895ECE7F0E0808180648083EAE7F0E0C9
S1131A5080818768808308950E94EC0C0E94FB0CAF
S1131A600E941F0D0E94210D6CE774E08CE091E050
S1131A700E94340C8CE091E00E94920C2FEF81EED6
S1131A8094E0215080409040E1F700C000006CE7F2
S1131A9070E08CE091E00E94340C609101018CE0D4
S1131AA091E00E94750B8CE091E00E94920C8CE016
S1131AB091E00E94920C8FE39CE90197F1F700C03A
S1131AC00000F5CFECE7F0E09081907F8F70892BD8
S1131AD08083EAE7F0E0808180648083808186FDF2
S1131AE0FDCF809178009091790008951F920F9214
S1131AF00FB60F9211242F933F934F935F936F93DD
S1131B007F938F939F93AF93BF93CF93EF93FF9361
S1131B108091130590911405A0911505B0911605B7
S1131B20AC01BD0144515109610971094931514068
S1131B306105710550F540910A0150910B0160E077
S1131B4070E0481759076A077B0700F1289A40910B
S1131B500A0150910B0160E070E0809113059091AF
S1131B601405A0911505B09116054996A11DB11D46
S1131B70481759076A077B0748F0289889E190E0DD
S1131B8090930B0180930A0101C0289A8091090166
S1131B90843008F495C01092090180E00E94620D1F
S1131BA0BC0180E090E00E949E0F20E030E040E81D
S1131BB05AE30E94041020E030E040E252E40E9424
S1131BC004100E946F0FC62F409108018CE091E031
S1131BD00E946C0480910701C81710F0C09307019C
S1131BE08091070182508093000190910601911128
S1131BF00BC08C1768F4809105018F5F80930501F9
S1131C0081E08093060104C08C1710F01092060145
S1131C10809108018F3708F44EC01092070180911B
S1131C200401823069F56091050170E021E732E03A
S1131C30629FC001639F900D729F900D11249923A0
S1131C400CF4CF96082E892F000C881F990B000CDA
S1131C50881F991F909302018093010180E096E010
S1131C600E949910CB01770FAA0BBB0B809313052D
S1131C7090931405A0931505B093160510920501D1
S1131C808CE091E00E947F0C6CE770E08CE091E0C6
S1131C900E94340C609101018CE091E00E94750B6C
S1131CA080910401823010F48F5F01C080E0809342
S1131CB0040110920801809108018F5F809308014C
S1131CC0809109018F5F8093090180910A019091AD
S1131CD00B01019690930B0180930A01FF91EF9100
S1131CE0CF91BF91AF919F918F917F916F915F91B0
S1131CF04F913F912F910F900FBE0F901F90189509
S1131D00209101013091020140E050E068E97AE35A
S1131D1080E090E00E94AD102093130530931405E9
S1131D2040931505509316058CE091E00E946904D8
S1131D3008951F93CF93DF93EC01162F0E94A00CFC
S1131D4060E0CE010E94CE0C612FCE010E94CE0C29
S1131D50CE010E94E30CDF91CF911F910895CF93A0
S1131D60DF93EC010E94970C68E7CE010E94980C67
S1131D706EEACE010E94990E65EDCE010E94990E85
S1131D8060E8CE010E94990E68EACE010E94990E85
S1131D906FE3CE010E94990E63EDCE010E94990E6D
S1131DA060E0CE010E94990E60E4CE010E94990E7B
S1131DB06DE8CE010E94990E64E1CE010E94990E55
S1131DC060E2CE010E94990E60E0CE010E94990E5D
S1131DD061EACE010E94990E68ECCE010E94990E30
S1131DE06AEDCE010E94990E62E1CE010E94990E25
S1131DF061E8CE010E94990E6FECCE010E94990E0B
S1131E0069EDCE010E94990E61EFCE010E94990EF8
S1131E106BEDCE010E94990E60E4CE010E94990EF2
S1131E2064EACE010E94990E66EACE010E94990EE0
S1131E306FEACE010E94990EDF91CF910895CF925F
S1131E40DF92EF92FF920F931F93CF93DF93082FAC
S1131E50192F7B0161E20E94990E60E0802F912F7F
S1131E600E94990E6FE7802F912F0E94990E62E2D3
S1131E70802F912F0E94990E60E0802F912F0E9455
S1131E80990E67E0802F912F0E94990EE7018CEF45
S1131E90F81A802F912F0E94A00C60E4802F912FBC
S1131EA00E94CE0C6E0180E1C80ED11C6991802F76
S1131EB0912F0E94CE0CCC15DD05C1F7802F912FF8
S1131EC00E94E30CE601EC14FD0419F7DF91CF91B5
S1131ED01F910F91FF90EF90DF90CF9008950E9493
S1131EE0E30F88F09F5798F0B92F9927B751B0F0B6
S1131EF0E1F0660F771F881F991F1AF0BA95C9F78A
S1131F0014C0B13091F00E94FD0FB1E008950C941B
S1131F10FD0F672F782F8827B85F39F0B93FCCF3CE
S1131F20869577956795B395D9F73EF49095809506
S1131F30709561957F4F8F4F9F4F0895E89409C026
S1131F4097FB3EF490958095709561957F4F8F4FE8
S1131F509F4F9923A9F0F92F96E9BB279395F695FE
S1131F60879577956795B795F111F8CFFAF4BB0F7C
S1131F7011F460FF1BC06F5F7F4F8F4F9F4F16C0E0
S1131F80882311F096E911C0772321F09EE8872F6A
S1131F90762F05C0662371F096E8862F70E060E026
S1131FA02AF09A95660F771F881FDAF7880F96959F
S1131FB0879597F9089557FD9058440F551F59F088
S1131FC05F3F71F04795880F97FB991F61F09F3F22
S1131FD079F087950895121613061406551FF2CF4B
S1131FE04695F1DF08C0161617061806991FF1CF9B
S1131FF086957105610508940895E894BB276627C2
S11320007727CB0197F908950E9417100C94881034
S11320100E947A1038F00E94811020F0952311F06C
S11320200C9471100C94771011240C94FE0F0E94E0
S1132030DB0F70F3959FC1F3950F50E0551F629F1E
S1132040F001729FBB27F00DB11D639FAA27F00D0D
S1132050B11DAA1F649F6627B00DA11D661F829F34
S11320602227B00DA11D621F739FB00DA11D621F19
S1132070839FA00D611D221F749F3327A00D611D36
S1132080231F849F600D211D822F762F6A2F112418
S11320909F5750409AF0F1F088234AF0EE0FFF1F4B
S11320A0BB1F661F771F881F91505040A9F79E3FA2
S11320B0510580F00C9471100C94FE0F5F3FE4F313
S11320C0983ED4F3869577956795B795F795E795F8
S11320D09F5FC1F7FE2B880F911D9695879597F901
S11320E0089597F99F6780E870E060E008959FEF96
S11320F080EC089500240A9416161706180609069B
S1132100089500240A941216130614060506089569
S1132110092E0394000C11F4882352F0BB0F40F4F1
S1132120BF2B11F460FF04C06F5F7F4F8F4F9F4F31
S1132130089597FB072E16F4009407D077FD09D075
S11321400E94D51007FC05D03EF4909581959F4FD1
S11321500895709561957F4F0895A1E21A2EAA1BE8
S1132160BB1BFD010DC0AA1FBB1FEE1FFF1FA21743
S1132170B307E407F50720F0A21BB30BE40BF50B40
S1132180661F771F881F991F1A9469F760957095C9
S1132190809590959B01AC01BD01CF010895EE0F90
S11321A0FF1F0590F491E02D0994AA1BBB1B51E17C
S11321B007C0AA1FBB1FA617B70710F0A61BB70BB3
S11321C0881F991F5A95A9F780959095BC01CD0158
S10921D00895F894FFCF0E
S10721D6123C0000B3
S9030000FC
